{
	"data": {
		"bytecode": {
			"linkReferences": {},
			"object": "608060405234801561001057600080fd5b5033600260006101000a81548173ffffffffffffffffffffffffffffffffffffffff021916908373ffffffffffffffffffffffffffffffffffffffff1602179055506113da806100616000396000f3fe6080604052600436106100705760003560e01c8063621df5341161004e578063621df534146100e557806397a993aa14610126578063b368693714610165578063d8c0df921461018e57610070565b80632e1a7d4d14610075578063384f58eb1461009e578063492e5e49146100c9575b600080fd5b34801561008157600080fd5b5061009c60048036038101906100979190610b51565b6101aa565b005b3480156100aa57600080fd5b506100b3610315565b6040516100c09190610d7f565b60405180910390f35b6100e360048036038101906100de9190610aea565b61033b565b005b3480156100f157600080fd5b5061010c60048036038101906101079190610abd565b610563565b60405161011d959493929190610f31565b60405180910390f35b34801561013257600080fd5b5061014d60048036038101906101489190610abd565b6105a6565b60405161015c93929190610efa565b60405180910390f35b34801561017157600080fd5b5061018c60048036038101906101879190610b7e565b6105d0565b005b6101a860048036038101906101a39190610aea565b6106c2565b005b60008060003373ffffffffffffffffffffffffffffffffffffffff1673ffffffffffffffffffffffffffffffffffffffff1681526020019081526020016000209050600015158160040160009054906101000a900460ff1615151415610245576040517f08c379a000000000000000000000000000000000000000000000000000000000815260040161023c90610dda565b60405180910390fd5b8181600001541161028b576040517f08c379a000000000000000000000000000000000000000000000000000000000815260040161028290610e3a565b60405180910390fd5b3373ffffffffffffffffffffffffffffffffffffffff166108fc66038d7ea4c68000846102b89190610feb565b9081150290604051600060405180830381858888f193505050501580156102e3573d6000803e3d6000fd5b5066038d7ea4c68000826102f79190610feb565b81600001600082825461030a9190611045565b925050819055505050565b600260009054906101000a900473ffffffffffffffffffffffffffffffffffffffff1681565b600260009054906101000a900473ffffffffffffffffffffffffffffffffffffffff1673ffffffffffffffffffffffffffffffffffffffff163373ffffffffffffffffffffffffffffffffffffffff16146103cb576040517f08c379a00000000000000000000000000000000000000000000000000000000081526004016103c290610e9a565b60405180910390fd5b600015156000808673ffffffffffffffffffffffffffffffffffffffff1673ffffffffffffffffffffffffffffffffffffffff16815260200190815260200160002060040160009054906101000a900460ff16151514610460576040517f08c379a000000000000000000000000000000000000000000000000000000000815260040161045790610dba565b60405180910390fd5b66b1a2bc2ec500003410156104aa576040517f08c379a00000000000000000000000000000000000000000000000000000000081526004016104a190610eba565b60405180910390fd5b6040518060a00160405280348152602001848152602001838152602001828152602001600115158152506000808673ffffffffffffffffffffffffffffffffffffffff1673ffffffffffffffffffffffffffffffffffffffff1681526020019081526020016000206000820151816000015560208201518160010155604082015181600201556060820151816003015560808201518160040160006101000a81548160ff02191690831515021790555090505050505050565b60006020528060005260406000206000915090508060000154908060010154908060020154908060030154908060040160009054906101000a900460ff16905085565b60016020528060005260406000206000915090508060000154908060010154908060020154905083565b60008060003373ffffffffffffffffffffffffffffffffffffffff1673ffffffffffffffffffffffffffffffffffffffff1681526020019081526020016000209050600015158160040160009054906101000a900460ff161515141561066b576040517f08c379a000000000000000000000000000000000000000000000000000000000815260040161066290610dda565b60405180910390fd5b8381600101600082825461067f9190610f95565b925050819055508281600201600082825461069a9190610f95565b92505081905550818160030160008282546106b59190610f95565b9250508190555050505050565b60008060008673ffffffffffffffffffffffffffffffffffffffff1673ffffffffffffffffffffffffffffffffffffffff16815260200190815260200160002090506000600160003373ffffffffffffffffffffffffffffffffffffffff1673ffffffffffffffffffffffffffffffffffffffff1681526020019081526020016000209050600015158260040160009054906101000a900460ff16151514156107a0576040517f08c379a000000000000000000000000000000000000000000000000000000000815260040161079790610dda565b60405180910390fd5b8573ffffffffffffffffffffffffffffffffffffffff163373ffffffffffffffffffffffffffffffffffffffff16141561080f576040517f08c379a000000000000000000000000000000000000000000000000000000000815260040161080690610e7a565b60405180910390fd5b8482600101541015610856576040517f08c379a000000000000000000000000000000000000000000000000000000000815260040161084d90610d9a565b60405180910390fd5b838260020154101561089d576040517f08c379a000000000000000000000000000000000000000000000000000000000815260040161089490610e5a565b60405180910390fd5b82826003015410156108e4576040517f08c379a00000000000000000000000000000000000000000000000000000000081526004016108db90610dfa565b60405180910390fd5b60008511806108f35750600084115b806108fe5750600083115b61093d576040517f08c379a000000000000000000000000000000000000000000000000000000000815260040161093490610eda565b60405180910390fd5b6000856103e861094d9190610feb565b90506000856103e861095f9190610feb565b90506000856103e86109719190610feb565b90508082846109809190610f95565b61098a9190610f95565b34146109cb576040517f08c379a00000000000000000000000000000000000000000000000000000000081526004016109c290610e1a565b60405180910390fd5b878560010160008282546109df9190611045565b92505081905550868560020160008282546109fa9190611045565b9250508190555085856003016000828254610a159190611045565b9250508190555034856000016000828254610a309190610f95565b9250508190555087846000016000828254610a4b9190610f95565b9250508190555086846001016000828254610a669190610f95565b9250508190555085846002016000828254610a819190610f95565b92505081905550505050505050505050565b600081359050610aa281611376565b92915050565b600081359050610ab78161138d565b92915050565b600060208284031215610ad357610ad26110f0565b5b6000610ae184828501610a93565b91505092915050565b60008060008060808587031215610b0457610b036110f0565b5b6000610b1287828801610a93565b9450506020610b2387828801610aa8565b9350506040610b3487828801610aa8565b9250506060610b4587828801610aa8565b91505092959194509250565b600060208284031215610b6757610b666110f0565b5b6000610b7584828501610aa8565b91505092915050565b600080600060608486031215610b9757610b966110f0565b5b6000610ba586828701610aa8565b9350506020610bb686828701610aa8565b9250506040610bc786828701610aa8565b9150509250925092565b610bda81611079565b82525050565b610be98161108b565b82525050565b6000610bfc601f83610f84565b9150610c07826110f5565b602082019050919050565b6000610c1f601983610f84565b9150610c2a8261111e565b602082019050919050565b6000610c42601783610f84565b9150610c4d82611147565b602082019050919050565b6000610c65602383610f84565b9150610c7082611170565b604082019050919050565b6000610c88602883610f84565b9150610c93826111bf565b604082019050919050565b6000610cab601e83610f84565b9150610cb68261120e565b602082019050919050565b6000610cce601e83610f84565b9150610cd982611237565b602082019050919050565b6000610cf1602883610f84565b9150610cfc82611260565b604082019050919050565b6000610d14602783610f84565b9150610d1f826112af565b604082019050919050565b6000610d37602a83610f84565b9150610d42826112fe565b604082019050919050565b6000610d5a601a83610f84565b9150610d658261134d565b602082019050919050565b610d79816110b7565b82525050565b6000602082019050610d946000830184610bd1565b92915050565b60006020820190508181036000830152610db381610bef565b9050919050565b60006020820190508181036000830152610dd381610c12565b9050919050565b60006020820190508181036000830152610df381610c35565b9050919050565b60006020820190508181036000830152610e1381610c58565b9050919050565b60006020820190508181036000830152610e3381610c7b565b9050919050565b60006020820190508181036000830152610e5381610c9e565b9050919050565b60006020820190508181036000830152610e7381610cc1565b9050919050565b60006020820190508181036000830152610e9381610ce4565b9050919050565b60006020820190508181036000830152610eb381610d07565b9050919050565b60006020820190508181036000830152610ed381610d2a565b9050919050565b60006020820190508181036000830152610ef381610d4d565b9050919050565b6000606082019050610f0f6000830186610d70565b610f1c6020830185610d70565b610f296040830184610d70565b949350505050565b600060a082019050610f466000830188610d70565b610f536020830187610d70565b610f606040830186610d70565b610f6d6060830185610d70565b610f7a6080830184610be0565b9695505050505050565b600082825260208201905092915050565b6000610fa0826110b7565b9150610fab836110b7565b9250827fffffffffffffffffffffffffffffffffffffffffffffffffffffffffffffffff03821115610fe057610fdf6110c1565b5b828201905092915050565b6000610ff6826110b7565b9150611001836110b7565b9250817fffffffffffffffffffffffffffffffffffffffffffffffffffffffffffffffff048311821515161561103a576110396110c1565b5b828202905092915050565b6000611050826110b7565b915061105b836110b7565b92508282101561106e5761106d6110c1565b5b828203905092915050565b600061108482611097565b9050919050565b60008115159050919050565b600073ffffffffffffffffffffffffffffffffffffffff82169050919050565b6000819050919050565b7f4e487b7100000000000000000000000000000000000000000000000000000000600052601160045260246000fd5b600080fd5b7f53746f7265277320636f6666656520697320696e73756666696369656e742e00600082015250565b7f546869732073746f726520616c72656164792065786973742e00000000000000600082015250565b7f5468652073746f7265206973206e6f742065786973742e000000000000000000600082015250565b7f53746f7265277320627562626c652074656120697320696e737566666963696560008201527f6e742e0000000000000000000000000000000000000000000000000000000000602082015250565b7f596f75206861766520746f2070617920657861637420616d6f756e7473206f6660008201527f204574686572732e000000000000000000000000000000000000000000000000602082015250565b7f45746865722062616c616e636520697320696e73756666696369656e742e0000600082015250565b7f53746f72652773206c6174746520697320696e73756666696369656e742e0000600082015250565b7f53746f7265206f776e65722063616e206e6f742062757920796f7572206f776e60008201527f206472696e6b732e000000000000000000000000000000000000000000000000602082015250565b7f4f6e6c792074686520636f6e7472616374206f776e65722063616e206164642060008201527f73746f7265732e00000000000000000000000000000000000000000000000000602082015250565b7f4e656564206174206c6561737420302e303520657468657220746f206164642060008201527f6e65772073746f72652e00000000000000000000000000000000000000000000602082015250565b7f596f75206861766520746f2062757920736f6d657468696e6721000000000000600082015250565b61137f81611079565b811461138a57600080fd5b50565b611396816110b7565b81146113a157600080fd5b5056fea2646970667358221220f9cfacbe24ef42efd9e226a4e93b5434cbeb3955096c6c643487484c08003a1664736f6c63430008050033",
			"opcodes": "PUSH1 0x80 PUSH1 0x40 MSTORE CALLVALUE DUP1 ISZERO PUSH2 0x10 JUMPI PUSH1 0x0 DUP1 REVERT JUMPDEST POP CALLER PUSH1 0x2 PUSH1 0x0 PUSH2 0x100 EXP DUP2 SLOAD DUP2 PUSH20 0xFFFFFFFFFFFFFFFFFFFFFFFFFFFFFFFFFFFFFFFF MUL NOT AND SWAP1 DUP4 PUSH20 0xFFFFFFFFFFFFFFFFFFFFFFFFFFFFFFFFFFFFFFFF AND MUL OR SWAP1 SSTORE POP PUSH2 0x13DA DUP1 PUSH2 0x61 PUSH1 0x0 CODECOPY PUSH1 0x0 RETURN INVALID PUSH1 0x80 PUSH1 0x40 MSTORE PUSH1 0x4 CALLDATASIZE LT PUSH2 0x70 JUMPI PUSH1 0x0 CALLDATALOAD PUSH1 0xE0 SHR DUP1 PUSH4 0x621DF534 GT PUSH2 0x4E JUMPI DUP1 PUSH4 0x621DF534 EQ PUSH2 0xE5 JUMPI DUP1 PUSH4 0x97A993AA EQ PUSH2 0x126 JUMPI DUP1 PUSH4 0xB3686937 EQ PUSH2 0x165 JUMPI DUP1 PUSH4 0xD8C0DF92 EQ PUSH2 0x18E JUMPI PUSH2 0x70 JUMP JUMPDEST DUP1 PUSH4 0x2E1A7D4D EQ PUSH2 0x75 JUMPI DUP1 PUSH4 0x384F58EB EQ PUSH2 0x9E JUMPI DUP1 PUSH4 0x492E5E49 EQ PUSH2 0xC9 JUMPI JUMPDEST PUSH1 0x0 DUP1 REVERT JUMPDEST CALLVALUE DUP1 ISZERO PUSH2 0x81 JUMPI PUSH1 0x0 DUP1 REVERT JUMPDEST POP PUSH2 0x9C PUSH1 0x4 DUP1 CALLDATASIZE SUB DUP2 ADD SWAP1 PUSH2 0x97 SWAP2 SWAP1 PUSH2 0xB51 JUMP JUMPDEST PUSH2 0x1AA JUMP JUMPDEST STOP JUMPDEST CALLVALUE DUP1 ISZERO PUSH2 0xAA JUMPI PUSH1 0x0 DUP1 REVERT JUMPDEST POP PUSH2 0xB3 PUSH2 0x315 JUMP JUMPDEST PUSH1 0x40 MLOAD PUSH2 0xC0 SWAP2 SWAP1 PUSH2 0xD7F JUMP JUMPDEST PUSH1 0x40 MLOAD DUP1 SWAP2 SUB SWAP1 RETURN JUMPDEST PUSH2 0xE3 PUSH1 0x4 DUP1 CALLDATASIZE SUB DUP2 ADD SWAP1 PUSH2 0xDE SWAP2 SWAP1 PUSH2 0xAEA JUMP JUMPDEST PUSH2 0x33B JUMP JUMPDEST STOP JUMPDEST CALLVALUE DUP1 ISZERO PUSH2 0xF1 JUMPI PUSH1 0x0 DUP1 REVERT JUMPDEST POP PUSH2 0x10C PUSH1 0x4 DUP1 CALLDATASIZE SUB DUP2 ADD SWAP1 PUSH2 0x107 SWAP2 SWAP1 PUSH2 0xABD JUMP JUMPDEST PUSH2 0x563 JUMP JUMPDEST PUSH1 0x40 MLOAD PUSH2 0x11D SWAP6 SWAP5 SWAP4 SWAP3 SWAP2 SWAP1 PUSH2 0xF31 JUMP JUMPDEST PUSH1 0x40 MLOAD DUP1 SWAP2 SUB SWAP1 RETURN JUMPDEST CALLVALUE DUP1 ISZERO PUSH2 0x132 JUMPI PUSH1 0x0 DUP1 REVERT JUMPDEST POP PUSH2 0x14D PUSH1 0x4 DUP1 CALLDATASIZE SUB DUP2 ADD SWAP1 PUSH2 0x148 SWAP2 SWAP1 PUSH2 0xABD JUMP JUMPDEST PUSH2 0x5A6 JUMP JUMPDEST PUSH1 0x40 MLOAD PUSH2 0x15C SWAP4 SWAP3 SWAP2 SWAP1 PUSH2 0xEFA JUMP JUMPDEST PUSH1 0x40 MLOAD DUP1 SWAP2 SUB SWAP1 RETURN JUMPDEST CALLVALUE DUP1 ISZERO PUSH2 0x171 JUMPI PUSH1 0x0 DUP1 REVERT JUMPDEST POP PUSH2 0x18C PUSH1 0x4 DUP1 CALLDATASIZE SUB DUP2 ADD SWAP1 PUSH2 0x187 SWAP2 SWAP1 PUSH2 0xB7E JUMP JUMPDEST PUSH2 0x5D0 JUMP JUMPDEST STOP JUMPDEST PUSH2 0x1A8 PUSH1 0x4 DUP1 CALLDATASIZE SUB DUP2 ADD SWAP1 PUSH2 0x1A3 SWAP2 SWAP1 PUSH2 0xAEA JUMP JUMPDEST PUSH2 0x6C2 JUMP JUMPDEST STOP JUMPDEST PUSH1 0x0 DUP1 PUSH1 0x0 CALLER PUSH20 0xFFFFFFFFFFFFFFFFFFFFFFFFFFFFFFFFFFFFFFFF AND PUSH20 0xFFFFFFFFFFFFFFFFFFFFFFFFFFFFFFFFFFFFFFFF AND DUP2 MSTORE PUSH1 0x20 ADD SWAP1 DUP2 MSTORE PUSH1 0x20 ADD PUSH1 0x0 KECCAK256 SWAP1 POP PUSH1 0x0 ISZERO ISZERO DUP2 PUSH1 0x4 ADD PUSH1 0x0 SWAP1 SLOAD SWAP1 PUSH2 0x100 EXP SWAP1 DIV PUSH1 0xFF AND ISZERO ISZERO EQ ISZERO PUSH2 0x245 JUMPI PUSH1 0x40 MLOAD PUSH32 0x8C379A000000000000000000000000000000000000000000000000000000000 DUP2 MSTORE PUSH1 0x4 ADD PUSH2 0x23C SWAP1 PUSH2 0xDDA JUMP JUMPDEST PUSH1 0x40 MLOAD DUP1 SWAP2 SUB SWAP1 REVERT JUMPDEST DUP2 DUP2 PUSH1 0x0 ADD SLOAD GT PUSH2 0x28B JUMPI PUSH1 0x40 MLOAD PUSH32 0x8C379A000000000000000000000000000000000000000000000000000000000 DUP2 MSTORE PUSH1 0x4 ADD PUSH2 0x282 SWAP1 PUSH2 0xE3A JUMP JUMPDEST PUSH1 0x40 MLOAD DUP1 SWAP2 SUB SWAP1 REVERT JUMPDEST CALLER PUSH20 0xFFFFFFFFFFFFFFFFFFFFFFFFFFFFFFFFFFFFFFFF AND PUSH2 0x8FC PUSH7 0x38D7EA4C68000 DUP5 PUSH2 0x2B8 SWAP2 SWAP1 PUSH2 0xFEB JUMP JUMPDEST SWAP1 DUP2 ISZERO MUL SWAP1 PUSH1 0x40 MLOAD PUSH1 0x0 PUSH1 0x40 MLOAD DUP1 DUP4 SUB DUP2 DUP6 DUP9 DUP9 CALL SWAP4 POP POP POP POP ISZERO DUP1 ISZERO PUSH2 0x2E3 JUMPI RETURNDATASIZE PUSH1 0x0 DUP1 RETURNDATACOPY RETURNDATASIZE PUSH1 0x0 REVERT JUMPDEST POP PUSH7 0x38D7EA4C68000 DUP3 PUSH2 0x2F7 SWAP2 SWAP1 PUSH2 0xFEB JUMP JUMPDEST DUP2 PUSH1 0x0 ADD PUSH1 0x0 DUP3 DUP3 SLOAD PUSH2 0x30A SWAP2 SWAP1 PUSH2 0x1045 JUMP JUMPDEST SWAP3 POP POP DUP2 SWAP1 SSTORE POP POP POP JUMP JUMPDEST PUSH1 0x2 PUSH1 0x0 SWAP1 SLOAD SWAP1 PUSH2 0x100 EXP SWAP1 DIV PUSH20 0xFFFFFFFFFFFFFFFFFFFFFFFFFFFFFFFFFFFFFFFF AND DUP2 JUMP JUMPDEST PUSH1 0x2 PUSH1 0x0 SWAP1 SLOAD SWAP1 PUSH2 0x100 EXP SWAP1 DIV PUSH20 0xFFFFFFFFFFFFFFFFFFFFFFFFFFFFFFFFFFFFFFFF AND PUSH20 0xFFFFFFFFFFFFFFFFFFFFFFFFFFFFFFFFFFFFFFFF AND CALLER PUSH20 0xFFFFFFFFFFFFFFFFFFFFFFFFFFFFFFFFFFFFFFFF AND EQ PUSH2 0x3CB JUMPI PUSH1 0x40 MLOAD PUSH32 0x8C379A000000000000000000000000000000000000000000000000000000000 DUP2 MSTORE PUSH1 0x4 ADD PUSH2 0x3C2 SWAP1 PUSH2 0xE9A JUMP JUMPDEST PUSH1 0x40 MLOAD DUP1 SWAP2 SUB SWAP1 REVERT JUMPDEST PUSH1 0x0 ISZERO ISZERO PUSH1 0x0 DUP1 DUP7 PUSH20 0xFFFFFFFFFFFFFFFFFFFFFFFFFFFFFFFFFFFFFFFF AND PUSH20 0xFFFFFFFFFFFFFFFFFFFFFFFFFFFFFFFFFFFFFFFF AND DUP2 MSTORE PUSH1 0x20 ADD SWAP1 DUP2 MSTORE PUSH1 0x20 ADD PUSH1 0x0 KECCAK256 PUSH1 0x4 ADD PUSH1 0x0 SWAP1 SLOAD SWAP1 PUSH2 0x100 EXP SWAP1 DIV PUSH1 0xFF AND ISZERO ISZERO EQ PUSH2 0x460 JUMPI PUSH1 0x40 MLOAD PUSH32 0x8C379A000000000000000000000000000000000000000000000000000000000 DUP2 MSTORE PUSH1 0x4 ADD PUSH2 0x457 SWAP1 PUSH2 0xDBA JUMP JUMPDEST PUSH1 0x40 MLOAD DUP1 SWAP2 SUB SWAP1 REVERT JUMPDEST PUSH7 0xB1A2BC2EC50000 CALLVALUE LT ISZERO PUSH2 0x4AA JUMPI PUSH1 0x40 MLOAD PUSH32 0x8C379A000000000000000000000000000000000000000000000000000000000 DUP2 MSTORE PUSH1 0x4 ADD PUSH2 0x4A1 SWAP1 PUSH2 0xEBA JUMP JUMPDEST PUSH1 0x40 MLOAD DUP1 SWAP2 SUB SWAP1 REVERT JUMPDEST PUSH1 0x40 MLOAD DUP1 PUSH1 0xA0 ADD PUSH1 0x40 MSTORE DUP1 CALLVALUE DUP2 MSTORE PUSH1 0x20 ADD DUP5 DUP2 MSTORE PUSH1 0x20 ADD DUP4 DUP2 MSTORE PUSH1 0x20 ADD DUP3 DUP2 MSTORE PUSH1 0x20 ADD PUSH1 0x1 ISZERO ISZERO DUP2 MSTORE POP PUSH1 0x0 DUP1 DUP7 PUSH20 0xFFFFFFFFFFFFFFFFFFFFFFFFFFFFFFFFFFFFFFFF AND PUSH20 0xFFFFFFFFFFFFFFFFFFFFFFFFFFFFFFFFFFFFFFFF AND DUP2 MSTORE PUSH1 0x20 ADD SWAP1 DUP2 MSTORE PUSH1 0x20 ADD PUSH1 0x0 KECCAK256 PUSH1 0x0 DUP3 ADD MLOAD DUP2 PUSH1 0x0 ADD SSTORE PUSH1 0x20 DUP3 ADD MLOAD DUP2 PUSH1 0x1 ADD SSTORE PUSH1 0x40 DUP3 ADD MLOAD DUP2 PUSH1 0x2 ADD SSTORE PUSH1 0x60 DUP3 ADD MLOAD DUP2 PUSH1 0x3 ADD SSTORE PUSH1 0x80 DUP3 ADD MLOAD DUP2 PUSH1 0x4 ADD PUSH1 0x0 PUSH2 0x100 EXP DUP2 SLOAD DUP2 PUSH1 0xFF MUL NOT AND SWAP1 DUP4 ISZERO ISZERO MUL OR SWAP1 SSTORE POP SWAP1 POP POP POP POP POP POP JUMP JUMPDEST PUSH1 0x0 PUSH1 0x20 MSTORE DUP1 PUSH1 0x0 MSTORE PUSH1 0x40 PUSH1 0x0 KECCAK256 PUSH1 0x0 SWAP2 POP SWAP1 POP DUP1 PUSH1 0x0 ADD SLOAD SWAP1 DUP1 PUSH1 0x1 ADD SLOAD SWAP1 DUP1 PUSH1 0x2 ADD SLOAD SWAP1 DUP1 PUSH1 0x3 ADD SLOAD SWAP1 DUP1 PUSH1 0x4 ADD PUSH1 0x0 SWAP1 SLOAD SWAP1 PUSH2 0x100 EXP SWAP1 DIV PUSH1 0xFF AND SWAP1 POP DUP6 JUMP JUMPDEST PUSH1 0x1 PUSH1 0x20 MSTORE DUP1 PUSH1 0x0 MSTORE PUSH1 0x40 PUSH1 0x0 KECCAK256 PUSH1 0x0 SWAP2 POP SWAP1 POP DUP1 PUSH1 0x0 ADD SLOAD SWAP1 DUP1 PUSH1 0x1 ADD SLOAD SWAP1 DUP1 PUSH1 0x2 ADD SLOAD SWAP1 POP DUP4 JUMP JUMPDEST PUSH1 0x0 DUP1 PUSH1 0x0 CALLER PUSH20 0xFFFFFFFFFFFFFFFFFFFFFFFFFFFFFFFFFFFFFFFF AND PUSH20 0xFFFFFFFFFFFFFFFFFFFFFFFFFFFFFFFFFFFFFFFF AND DUP2 MSTORE PUSH1 0x20 ADD SWAP1 DUP2 MSTORE PUSH1 0x20 ADD PUSH1 0x0 KECCAK256 SWAP1 POP PUSH1 0x0 ISZERO ISZERO DUP2 PUSH1 0x4 ADD PUSH1 0x0 SWAP1 SLOAD SWAP1 PUSH2 0x100 EXP SWAP1 DIV PUSH1 0xFF AND ISZERO ISZERO EQ ISZERO PUSH2 0x66B JUMPI PUSH1 0x40 MLOAD PUSH32 0x8C379A000000000000000000000000000000000000000000000000000000000 DUP2 MSTORE PUSH1 0x4 ADD PUSH2 0x662 SWAP1 PUSH2 0xDDA JUMP JUMPDEST PUSH1 0x40 MLOAD DUP1 SWAP2 SUB SWAP1 REVERT JUMPDEST DUP4 DUP2 PUSH1 0x1 ADD PUSH1 0x0 DUP3 DUP3 SLOAD PUSH2 0x67F SWAP2 SWAP1 PUSH2 0xF95 JUMP JUMPDEST SWAP3 POP POP DUP2 SWAP1 SSTORE POP DUP3 DUP2 PUSH1 0x2 ADD PUSH1 0x0 DUP3 DUP3 SLOAD PUSH2 0x69A SWAP2 SWAP1 PUSH2 0xF95 JUMP JUMPDEST SWAP3 POP POP DUP2 SWAP1 SSTORE POP DUP2 DUP2 PUSH1 0x3 ADD PUSH1 0x0 DUP3 DUP3 SLOAD PUSH2 0x6B5 SWAP2 SWAP1 PUSH2 0xF95 JUMP JUMPDEST SWAP3 POP POP DUP2 SWAP1 SSTORE POP POP POP POP POP JUMP JUMPDEST PUSH1 0x0 DUP1 PUSH1 0x0 DUP7 PUSH20 0xFFFFFFFFFFFFFFFFFFFFFFFFFFFFFFFFFFFFFFFF AND PUSH20 0xFFFFFFFFFFFFFFFFFFFFFFFFFFFFFFFFFFFFFFFF AND DUP2 MSTORE PUSH1 0x20 ADD SWAP1 DUP2 MSTORE PUSH1 0x20 ADD PUSH1 0x0 KECCAK256 SWAP1 POP PUSH1 0x0 PUSH1 0x1 PUSH1 0x0 CALLER PUSH20 0xFFFFFFFFFFFFFFFFFFFFFFFFFFFFFFFFFFFFFFFF AND PUSH20 0xFFFFFFFFFFFFFFFFFFFFFFFFFFFFFFFFFFFFFFFF AND DUP2 MSTORE PUSH1 0x20 ADD SWAP1 DUP2 MSTORE PUSH1 0x20 ADD PUSH1 0x0 KECCAK256 SWAP1 POP PUSH1 0x0 ISZERO ISZERO DUP3 PUSH1 0x4 ADD PUSH1 0x0 SWAP1 SLOAD SWAP1 PUSH2 0x100 EXP SWAP1 DIV PUSH1 0xFF AND ISZERO ISZERO EQ ISZERO PUSH2 0x7A0 JUMPI PUSH1 0x40 MLOAD PUSH32 0x8C379A000000000000000000000000000000000000000000000000000000000 DUP2 MSTORE PUSH1 0x4 ADD PUSH2 0x797 SWAP1 PUSH2 0xDDA JUMP JUMPDEST PUSH1 0x40 MLOAD DUP1 SWAP2 SUB SWAP1 REVERT JUMPDEST DUP6 PUSH20 0xFFFFFFFFFFFFFFFFFFFFFFFFFFFFFFFFFFFFFFFF AND CALLER PUSH20 0xFFFFFFFFFFFFFFFFFFFFFFFFFFFFFFFFFFFFFFFF AND EQ ISZERO PUSH2 0x80F JUMPI PUSH1 0x40 MLOAD PUSH32 0x8C379A000000000000000000000000000000000000000000000000000000000 DUP2 MSTORE PUSH1 0x4 ADD PUSH2 0x806 SWAP1 PUSH2 0xE7A JUMP JUMPDEST PUSH1 0x40 MLOAD DUP1 SWAP2 SUB SWAP1 REVERT JUMPDEST DUP5 DUP3 PUSH1 0x1 ADD SLOAD LT ISZERO PUSH2 0x856 JUMPI PUSH1 0x40 MLOAD PUSH32 0x8C379A000000000000000000000000000000000000000000000000000000000 DUP2 MSTORE PUSH1 0x4 ADD PUSH2 0x84D SWAP1 PUSH2 0xD9A JUMP JUMPDEST PUSH1 0x40 MLOAD DUP1 SWAP2 SUB SWAP1 REVERT JUMPDEST DUP4 DUP3 PUSH1 0x2 ADD SLOAD LT ISZERO PUSH2 0x89D JUMPI PUSH1 0x40 MLOAD PUSH32 0x8C379A000000000000000000000000000000000000000000000000000000000 DUP2 MSTORE PUSH1 0x4 ADD PUSH2 0x894 SWAP1 PUSH2 0xE5A JUMP JUMPDEST PUSH1 0x40 MLOAD DUP1 SWAP2 SUB SWAP1 REVERT JUMPDEST DUP3 DUP3 PUSH1 0x3 ADD SLOAD LT ISZERO PUSH2 0x8E4 JUMPI PUSH1 0x40 MLOAD PUSH32 0x8C379A000000000000000000000000000000000000000000000000000000000 DUP2 MSTORE PUSH1 0x4 ADD PUSH2 0x8DB SWAP1 PUSH2 0xDFA JUMP JUMPDEST PUSH1 0x40 MLOAD DUP1 SWAP2 SUB SWAP1 REVERT JUMPDEST PUSH1 0x0 DUP6 GT DUP1 PUSH2 0x8F3 JUMPI POP PUSH1 0x0 DUP5 GT JUMPDEST DUP1 PUSH2 0x8FE JUMPI POP PUSH1 0x0 DUP4 GT JUMPDEST PUSH2 0x93D JUMPI PUSH1 0x40 MLOAD PUSH32 0x8C379A000000000000000000000000000000000000000000000000000000000 DUP2 MSTORE PUSH1 0x4 ADD PUSH2 0x934 SWAP1 PUSH2 0xEDA JUMP JUMPDEST PUSH1 0x40 MLOAD DUP1 SWAP2 SUB SWAP1 REVERT JUMPDEST PUSH1 0x0 DUP6 PUSH2 0x3E8 PUSH2 0x94D SWAP2 SWAP1 PUSH2 0xFEB JUMP JUMPDEST SWAP1 POP PUSH1 0x0 DUP6 PUSH2 0x3E8 PUSH2 0x95F SWAP2 SWAP1 PUSH2 0xFEB JUMP JUMPDEST SWAP1 POP PUSH1 0x0 DUP6 PUSH2 0x3E8 PUSH2 0x971 SWAP2 SWAP1 PUSH2 0xFEB JUMP JUMPDEST SWAP1 POP DUP1 DUP3 DUP5 PUSH2 0x980 SWAP2 SWAP1 PUSH2 0xF95 JUMP JUMPDEST PUSH2 0x98A SWAP2 SWAP1 PUSH2 0xF95 JUMP JUMPDEST CALLVALUE EQ PUSH2 0x9CB JUMPI PUSH1 0x40 MLOAD PUSH32 0x8C379A000000000000000000000000000000000000000000000000000000000 DUP2 MSTORE PUSH1 0x4 ADD PUSH2 0x9C2 SWAP1 PUSH2 0xE1A JUMP JUMPDEST PUSH1 0x40 MLOAD DUP1 SWAP2 SUB SWAP1 REVERT JUMPDEST DUP8 DUP6 PUSH1 0x1 ADD PUSH1 0x0 DUP3 DUP3 SLOAD PUSH2 0x9DF SWAP2 SWAP1 PUSH2 0x1045 JUMP JUMPDEST SWAP3 POP POP DUP2 SWAP1 SSTORE POP DUP7 DUP6 PUSH1 0x2 ADD PUSH1 0x0 DUP3 DUP3 SLOAD PUSH2 0x9FA SWAP2 SWAP1 PUSH2 0x1045 JUMP JUMPDEST SWAP3 POP POP DUP2 SWAP1 SSTORE POP DUP6 DUP6 PUSH1 0x3 ADD PUSH1 0x0 DUP3 DUP3 SLOAD PUSH2 0xA15 SWAP2 SWAP1 PUSH2 0x1045 JUMP JUMPDEST SWAP3 POP POP DUP2 SWAP1 SSTORE POP CALLVALUE DUP6 PUSH1 0x0 ADD PUSH1 0x0 DUP3 DUP3 SLOAD PUSH2 0xA30 SWAP2 SWAP1 PUSH2 0xF95 JUMP JUMPDEST SWAP3 POP POP DUP2 SWAP1 SSTORE POP DUP8 DUP5 PUSH1 0x0 ADD PUSH1 0x0 DUP3 DUP3 SLOAD PUSH2 0xA4B SWAP2 SWAP1 PUSH2 0xF95 JUMP JUMPDEST SWAP3 POP POP DUP2 SWAP1 SSTORE POP DUP7 DUP5 PUSH1 0x1 ADD PUSH1 0x0 DUP3 DUP3 SLOAD PUSH2 0xA66 SWAP2 SWAP1 PUSH2 0xF95 JUMP JUMPDEST SWAP3 POP POP DUP2 SWAP1 SSTORE POP DUP6 DUP5 PUSH1 0x2 ADD PUSH1 0x0 DUP3 DUP3 SLOAD PUSH2 0xA81 SWAP2 SWAP1 PUSH2 0xF95 JUMP JUMPDEST SWAP3 POP POP DUP2 SWAP1 SSTORE POP POP POP POP POP POP POP POP POP POP JUMP JUMPDEST PUSH1 0x0 DUP2 CALLDATALOAD SWAP1 POP PUSH2 0xAA2 DUP2 PUSH2 0x1376 JUMP JUMPDEST SWAP3 SWAP2 POP POP JUMP JUMPDEST PUSH1 0x0 DUP2 CALLDATALOAD SWAP1 POP PUSH2 0xAB7 DUP2 PUSH2 0x138D JUMP JUMPDEST SWAP3 SWAP2 POP POP JUMP JUMPDEST PUSH1 0x0 PUSH1 0x20 DUP3 DUP5 SUB SLT ISZERO PUSH2 0xAD3 JUMPI PUSH2 0xAD2 PUSH2 0x10F0 JUMP JUMPDEST JUMPDEST PUSH1 0x0 PUSH2 0xAE1 DUP5 DUP3 DUP6 ADD PUSH2 0xA93 JUMP JUMPDEST SWAP2 POP POP SWAP3 SWAP2 POP POP JUMP JUMPDEST PUSH1 0x0 DUP1 PUSH1 0x0 DUP1 PUSH1 0x80 DUP6 DUP8 SUB SLT ISZERO PUSH2 0xB04 JUMPI PUSH2 0xB03 PUSH2 0x10F0 JUMP JUMPDEST JUMPDEST PUSH1 0x0 PUSH2 0xB12 DUP8 DUP3 DUP9 ADD PUSH2 0xA93 JUMP JUMPDEST SWAP5 POP POP PUSH1 0x20 PUSH2 0xB23 DUP8 DUP3 DUP9 ADD PUSH2 0xAA8 JUMP JUMPDEST SWAP4 POP POP PUSH1 0x40 PUSH2 0xB34 DUP8 DUP3 DUP9 ADD PUSH2 0xAA8 JUMP JUMPDEST SWAP3 POP POP PUSH1 0x60 PUSH2 0xB45 DUP8 DUP3 DUP9 ADD PUSH2 0xAA8 JUMP JUMPDEST SWAP2 POP POP SWAP3 SWAP6 SWAP2 SWAP5 POP SWAP3 POP JUMP JUMPDEST PUSH1 0x0 PUSH1 0x20 DUP3 DUP5 SUB SLT ISZERO PUSH2 0xB67 JUMPI PUSH2 0xB66 PUSH2 0x10F0 JUMP JUMPDEST JUMPDEST PUSH1 0x0 PUSH2 0xB75 DUP5 DUP3 DUP6 ADD PUSH2 0xAA8 JUMP JUMPDEST SWAP2 POP POP SWAP3 SWAP2 POP POP JUMP JUMPDEST PUSH1 0x0 DUP1 PUSH1 0x0 PUSH1 0x60 DUP5 DUP7 SUB SLT ISZERO PUSH2 0xB97 JUMPI PUSH2 0xB96 PUSH2 0x10F0 JUMP JUMPDEST JUMPDEST PUSH1 0x0 PUSH2 0xBA5 DUP7 DUP3 DUP8 ADD PUSH2 0xAA8 JUMP JUMPDEST SWAP4 POP POP PUSH1 0x20 PUSH2 0xBB6 DUP7 DUP3 DUP8 ADD PUSH2 0xAA8 JUMP JUMPDEST SWAP3 POP POP PUSH1 0x40 PUSH2 0xBC7 DUP7 DUP3 DUP8 ADD PUSH2 0xAA8 JUMP JUMPDEST SWAP2 POP POP SWAP3 POP SWAP3 POP SWAP3 JUMP JUMPDEST PUSH2 0xBDA DUP2 PUSH2 0x1079 JUMP JUMPDEST DUP3 MSTORE POP POP JUMP JUMPDEST PUSH2 0xBE9 DUP2 PUSH2 0x108B JUMP JUMPDEST DUP3 MSTORE POP POP JUMP JUMPDEST PUSH1 0x0 PUSH2 0xBFC PUSH1 0x1F DUP4 PUSH2 0xF84 JUMP JUMPDEST SWAP2 POP PUSH2 0xC07 DUP3 PUSH2 0x10F5 JUMP JUMPDEST PUSH1 0x20 DUP3 ADD SWAP1 POP SWAP2 SWAP1 POP JUMP JUMPDEST PUSH1 0x0 PUSH2 0xC1F PUSH1 0x19 DUP4 PUSH2 0xF84 JUMP JUMPDEST SWAP2 POP PUSH2 0xC2A DUP3 PUSH2 0x111E JUMP JUMPDEST PUSH1 0x20 DUP3 ADD SWAP1 POP SWAP2 SWAP1 POP JUMP JUMPDEST PUSH1 0x0 PUSH2 0xC42 PUSH1 0x17 DUP4 PUSH2 0xF84 JUMP JUMPDEST SWAP2 POP PUSH2 0xC4D DUP3 PUSH2 0x1147 JUMP JUMPDEST PUSH1 0x20 DUP3 ADD SWAP1 POP SWAP2 SWAP1 POP JUMP JUMPDEST PUSH1 0x0 PUSH2 0xC65 PUSH1 0x23 DUP4 PUSH2 0xF84 JUMP JUMPDEST SWAP2 POP PUSH2 0xC70 DUP3 PUSH2 0x1170 JUMP JUMPDEST PUSH1 0x40 DUP3 ADD SWAP1 POP SWAP2 SWAP1 POP JUMP JUMPDEST PUSH1 0x0 PUSH2 0xC88 PUSH1 0x28 DUP4 PUSH2 0xF84 JUMP JUMPDEST SWAP2 POP PUSH2 0xC93 DUP3 PUSH2 0x11BF JUMP JUMPDEST PUSH1 0x40 DUP3 ADD SWAP1 POP SWAP2 SWAP1 POP JUMP JUMPDEST PUSH1 0x0 PUSH2 0xCAB PUSH1 0x1E DUP4 PUSH2 0xF84 JUMP JUMPDEST SWAP2 POP PUSH2 0xCB6 DUP3 PUSH2 0x120E JUMP JUMPDEST PUSH1 0x20 DUP3 ADD SWAP1 POP SWAP2 SWAP1 POP JUMP JUMPDEST PUSH1 0x0 PUSH2 0xCCE PUSH1 0x1E DUP4 PUSH2 0xF84 JUMP JUMPDEST SWAP2 POP PUSH2 0xCD9 DUP3 PUSH2 0x1237 JUMP JUMPDEST PUSH1 0x20 DUP3 ADD SWAP1 POP SWAP2 SWAP1 POP JUMP JUMPDEST PUSH1 0x0 PUSH2 0xCF1 PUSH1 0x28 DUP4 PUSH2 0xF84 JUMP JUMPDEST SWAP2 POP PUSH2 0xCFC DUP3 PUSH2 0x1260 JUMP JUMPDEST PUSH1 0x40 DUP3 ADD SWAP1 POP SWAP2 SWAP1 POP JUMP JUMPDEST PUSH1 0x0 PUSH2 0xD14 PUSH1 0x27 DUP4 PUSH2 0xF84 JUMP JUMPDEST SWAP2 POP PUSH2 0xD1F DUP3 PUSH2 0x12AF JUMP JUMPDEST PUSH1 0x40 DUP3 ADD SWAP1 POP SWAP2 SWAP1 POP JUMP JUMPDEST PUSH1 0x0 PUSH2 0xD37 PUSH1 0x2A DUP4 PUSH2 0xF84 JUMP JUMPDEST SWAP2 POP PUSH2 0xD42 DUP3 PUSH2 0x12FE JUMP JUMPDEST PUSH1 0x40 DUP3 ADD SWAP1 POP SWAP2 SWAP1 POP JUMP JUMPDEST PUSH1 0x0 PUSH2 0xD5A PUSH1 0x1A DUP4 PUSH2 0xF84 JUMP JUMPDEST SWAP2 POP PUSH2 0xD65 DUP3 PUSH2 0x134D JUMP JUMPDEST PUSH1 0x20 DUP3 ADD SWAP1 POP SWAP2 SWAP1 POP JUMP JUMPDEST PUSH2 0xD79 DUP2 PUSH2 0x10B7 JUMP JUMPDEST DUP3 MSTORE POP POP JUMP JUMPDEST PUSH1 0x0 PUSH1 0x20 DUP3 ADD SWAP1 POP PUSH2 0xD94 PUSH1 0x0 DUP4 ADD DUP5 PUSH2 0xBD1 JUMP JUMPDEST SWAP3 SWAP2 POP POP JUMP JUMPDEST PUSH1 0x0 PUSH1 0x20 DUP3 ADD SWAP1 POP DUP2 DUP2 SUB PUSH1 0x0 DUP4 ADD MSTORE PUSH2 0xDB3 DUP2 PUSH2 0xBEF JUMP JUMPDEST SWAP1 POP SWAP2 SWAP1 POP JUMP JUMPDEST PUSH1 0x0 PUSH1 0x20 DUP3 ADD SWAP1 POP DUP2 DUP2 SUB PUSH1 0x0 DUP4 ADD MSTORE PUSH2 0xDD3 DUP2 PUSH2 0xC12 JUMP JUMPDEST SWAP1 POP SWAP2 SWAP1 POP JUMP JUMPDEST PUSH1 0x0 PUSH1 0x20 DUP3 ADD SWAP1 POP DUP2 DUP2 SUB PUSH1 0x0 DUP4 ADD MSTORE PUSH2 0xDF3 DUP2 PUSH2 0xC35 JUMP JUMPDEST SWAP1 POP SWAP2 SWAP1 POP JUMP JUMPDEST PUSH1 0x0 PUSH1 0x20 DUP3 ADD SWAP1 POP DUP2 DUP2 SUB PUSH1 0x0 DUP4 ADD MSTORE PUSH2 0xE13 DUP2 PUSH2 0xC58 JUMP JUMPDEST SWAP1 POP SWAP2 SWAP1 POP JUMP JUMPDEST PUSH1 0x0 PUSH1 0x20 DUP3 ADD SWAP1 POP DUP2 DUP2 SUB PUSH1 0x0 DUP4 ADD MSTORE PUSH2 0xE33 DUP2 PUSH2 0xC7B JUMP JUMPDEST SWAP1 POP SWAP2 SWAP1 POP JUMP JUMPDEST PUSH1 0x0 PUSH1 0x20 DUP3 ADD SWAP1 POP DUP2 DUP2 SUB PUSH1 0x0 DUP4 ADD MSTORE PUSH2 0xE53 DUP2 PUSH2 0xC9E JUMP JUMPDEST SWAP1 POP SWAP2 SWAP1 POP JUMP JUMPDEST PUSH1 0x0 PUSH1 0x20 DUP3 ADD SWAP1 POP DUP2 DUP2 SUB PUSH1 0x0 DUP4 ADD MSTORE PUSH2 0xE73 DUP2 PUSH2 0xCC1 JUMP JUMPDEST SWAP1 POP SWAP2 SWAP1 POP JUMP JUMPDEST PUSH1 0x0 PUSH1 0x20 DUP3 ADD SWAP1 POP DUP2 DUP2 SUB PUSH1 0x0 DUP4 ADD MSTORE PUSH2 0xE93 DUP2 PUSH2 0xCE4 JUMP JUMPDEST SWAP1 POP SWAP2 SWAP1 POP JUMP JUMPDEST PUSH1 0x0 PUSH1 0x20 DUP3 ADD SWAP1 POP DUP2 DUP2 SUB PUSH1 0x0 DUP4 ADD MSTORE PUSH2 0xEB3 DUP2 PUSH2 0xD07 JUMP JUMPDEST SWAP1 POP SWAP2 SWAP1 POP JUMP JUMPDEST PUSH1 0x0 PUSH1 0x20 DUP3 ADD SWAP1 POP DUP2 DUP2 SUB PUSH1 0x0 DUP4 ADD MSTORE PUSH2 0xED3 DUP2 PUSH2 0xD2A JUMP JUMPDEST SWAP1 POP SWAP2 SWAP1 POP JUMP JUMPDEST PUSH1 0x0 PUSH1 0x20 DUP3 ADD SWAP1 POP DUP2 DUP2 SUB PUSH1 0x0 DUP4 ADD MSTORE PUSH2 0xEF3 DUP2 PUSH2 0xD4D JUMP JUMPDEST SWAP1 POP SWAP2 SWAP1 POP JUMP JUMPDEST PUSH1 0x0 PUSH1 0x60 DUP3 ADD SWAP1 POP PUSH2 0xF0F PUSH1 0x0 DUP4 ADD DUP7 PUSH2 0xD70 JUMP JUMPDEST PUSH2 0xF1C PUSH1 0x20 DUP4 ADD DUP6 PUSH2 0xD70 JUMP JUMPDEST PUSH2 0xF29 PUSH1 0x40 DUP4 ADD DUP5 PUSH2 0xD70 JUMP JUMPDEST SWAP5 SWAP4 POP POP POP POP JUMP JUMPDEST PUSH1 0x0 PUSH1 0xA0 DUP3 ADD SWAP1 POP PUSH2 0xF46 PUSH1 0x0 DUP4 ADD DUP9 PUSH2 0xD70 JUMP JUMPDEST PUSH2 0xF53 PUSH1 0x20 DUP4 ADD DUP8 PUSH2 0xD70 JUMP JUMPDEST PUSH2 0xF60 PUSH1 0x40 DUP4 ADD DUP7 PUSH2 0xD70 JUMP JUMPDEST PUSH2 0xF6D PUSH1 0x60 DUP4 ADD DUP6 PUSH2 0xD70 JUMP JUMPDEST PUSH2 0xF7A PUSH1 0x80 DUP4 ADD DUP5 PUSH2 0xBE0 JUMP JUMPDEST SWAP7 SWAP6 POP POP POP POP POP POP JUMP JUMPDEST PUSH1 0x0 DUP3 DUP3 MSTORE PUSH1 0x20 DUP3 ADD SWAP1 POP SWAP3 SWAP2 POP POP JUMP JUMPDEST PUSH1 0x0 PUSH2 0xFA0 DUP3 PUSH2 0x10B7 JUMP JUMPDEST SWAP2 POP PUSH2 0xFAB DUP4 PUSH2 0x10B7 JUMP JUMPDEST SWAP3 POP DUP3 PUSH32 0xFFFFFFFFFFFFFFFFFFFFFFFFFFFFFFFFFFFFFFFFFFFFFFFFFFFFFFFFFFFFFFFF SUB DUP3 GT ISZERO PUSH2 0xFE0 JUMPI PUSH2 0xFDF PUSH2 0x10C1 JUMP JUMPDEST JUMPDEST DUP3 DUP3 ADD SWAP1 POP SWAP3 SWAP2 POP POP JUMP JUMPDEST PUSH1 0x0 PUSH2 0xFF6 DUP3 PUSH2 0x10B7 JUMP JUMPDEST SWAP2 POP PUSH2 0x1001 DUP4 PUSH2 0x10B7 JUMP JUMPDEST SWAP3 POP DUP2 PUSH32 0xFFFFFFFFFFFFFFFFFFFFFFFFFFFFFFFFFFFFFFFFFFFFFFFFFFFFFFFFFFFFFFFF DIV DUP4 GT DUP3 ISZERO ISZERO AND ISZERO PUSH2 0x103A JUMPI PUSH2 0x1039 PUSH2 0x10C1 JUMP JUMPDEST JUMPDEST DUP3 DUP3 MUL SWAP1 POP SWAP3 SWAP2 POP POP JUMP JUMPDEST PUSH1 0x0 PUSH2 0x1050 DUP3 PUSH2 0x10B7 JUMP JUMPDEST SWAP2 POP PUSH2 0x105B DUP4 PUSH2 0x10B7 JUMP JUMPDEST SWAP3 POP DUP3 DUP3 LT ISZERO PUSH2 0x106E JUMPI PUSH2 0x106D PUSH2 0x10C1 JUMP JUMPDEST JUMPDEST DUP3 DUP3 SUB SWAP1 POP SWAP3 SWAP2 POP POP JUMP JUMPDEST PUSH1 0x0 PUSH2 0x1084 DUP3 PUSH2 0x1097 JUMP JUMPDEST SWAP1 POP SWAP2 SWAP1 POP JUMP JUMPDEST PUSH1 0x0 DUP2 ISZERO ISZERO SWAP1 POP SWAP2 SWAP1 POP JUMP JUMPDEST PUSH1 0x0 PUSH20 0xFFFFFFFFFFFFFFFFFFFFFFFFFFFFFFFFFFFFFFFF DUP3 AND SWAP1 POP SWAP2 SWAP1 POP JUMP JUMPDEST PUSH1 0x0 DUP2 SWAP1 POP SWAP2 SWAP1 POP JUMP JUMPDEST PUSH32 0x4E487B7100000000000000000000000000000000000000000000000000000000 PUSH1 0x0 MSTORE PUSH1 0x11 PUSH1 0x4 MSTORE PUSH1 0x24 PUSH1 0x0 REVERT JUMPDEST PUSH1 0x0 DUP1 REVERT JUMPDEST PUSH32 0x53746F7265277320636F6666656520697320696E73756666696369656E742E00 PUSH1 0x0 DUP3 ADD MSTORE POP JUMP JUMPDEST PUSH32 0x546869732073746F726520616C72656164792065786973742E00000000000000 PUSH1 0x0 DUP3 ADD MSTORE POP JUMP JUMPDEST PUSH32 0x5468652073746F7265206973206E6F742065786973742E000000000000000000 PUSH1 0x0 DUP3 ADD MSTORE POP JUMP JUMPDEST PUSH32 0x53746F7265277320627562626C652074656120697320696E7375666669636965 PUSH1 0x0 DUP3 ADD MSTORE PUSH32 0x6E742E0000000000000000000000000000000000000000000000000000000000 PUSH1 0x20 DUP3 ADD MSTORE POP JUMP JUMPDEST PUSH32 0x596F75206861766520746F2070617920657861637420616D6F756E7473206F66 PUSH1 0x0 DUP3 ADD MSTORE PUSH32 0x204574686572732E000000000000000000000000000000000000000000000000 PUSH1 0x20 DUP3 ADD MSTORE POP JUMP JUMPDEST PUSH32 0x45746865722062616C616E636520697320696E73756666696369656E742E0000 PUSH1 0x0 DUP3 ADD MSTORE POP JUMP JUMPDEST PUSH32 0x53746F72652773206C6174746520697320696E73756666696369656E742E0000 PUSH1 0x0 DUP3 ADD MSTORE POP JUMP JUMPDEST PUSH32 0x53746F7265206F776E65722063616E206E6F742062757920796F7572206F776E PUSH1 0x0 DUP3 ADD MSTORE PUSH32 0x206472696E6B732E000000000000000000000000000000000000000000000000 PUSH1 0x20 DUP3 ADD MSTORE POP JUMP JUMPDEST PUSH32 0x4F6E6C792074686520636F6E7472616374206F776E65722063616E2061646420 PUSH1 0x0 DUP3 ADD MSTORE PUSH32 0x73746F7265732E00000000000000000000000000000000000000000000000000 PUSH1 0x20 DUP3 ADD MSTORE POP JUMP JUMPDEST PUSH32 0x4E656564206174206C6561737420302E303520657468657220746F2061646420 PUSH1 0x0 DUP3 ADD MSTORE PUSH32 0x6E65772073746F72652E00000000000000000000000000000000000000000000 PUSH1 0x20 DUP3 ADD MSTORE POP JUMP JUMPDEST PUSH32 0x596F75206861766520746F2062757920736F6D657468696E6721000000000000 PUSH1 0x0 DUP3 ADD MSTORE POP JUMP JUMPDEST PUSH2 0x137F DUP2 PUSH2 0x1079 JUMP JUMPDEST DUP2 EQ PUSH2 0x138A JUMPI PUSH1 0x0 DUP1 REVERT JUMPDEST POP JUMP JUMPDEST PUSH2 0x1396 DUP2 PUSH2 0x10B7 JUMP JUMPDEST DUP2 EQ PUSH2 0x13A1 JUMPI PUSH1 0x0 DUP1 REVERT JUMPDEST POP JUMP INVALID LOG2 PUSH5 0x6970667358 0x22 SLT KECCAK256 0xF9 0xCF 0xAC 0xBE 0x24 0xEF TIMESTAMP 0xEF 0xD9 0xE2 0x26 LOG4 0xE9 EXTCODESIZE SLOAD CALLVALUE 0xCB 0xEB CODECOPY SSTORE MULMOD PUSH13 0x6C643487484C08003A1664736F PUSH13 0x63430008050033000000000000 "
		},
		"gasEstimates": {
			"creation": {
				"codeDepositCost": "1016400",
				"executionCost": "25320",
				"totalCost": "1041720"
			},
			"external": {
				"Buy_Drink(address,uint256,uint256,uint256)": "infinite",
				"addStore(address,uint256,uint256,uint256)": "infinite",
				"add_inventory(uint256,uint256,uint256)": "infinite",
				"buyers(address)": "infinite",
				"contract_owner()": "2537",
				"stores(address)": "infinite",
				"withdraw(uint256)": "infinite"
			}
		},
		"methodIdentifiers": {
			"Buy_Drink(address,uint256,uint256,uint256)": "d8c0df92",
			"addStore(address,uint256,uint256,uint256)": "492e5e49",
			"add_inventory(uint256,uint256,uint256)": "b3686937",
			"buyers(address)": "97a993aa",
			"contract_owner()": "384f58eb",
			"stores(address)": "621df534",
			"withdraw(uint256)": "2e1a7d4d"
		}
	},
	"abi": [
		{
			"inputs": [],
			"stateMutability": "nonpayable",
			"type": "constructor"
		},
		{
			"inputs": [
				{
					"internalType": "address",
					"name": "store_address",
					"type": "address"
				},
				{
					"internalType": "uint256",
					"name": "coffee_amount",
					"type": "uint256"
				},
				{
					"internalType": "uint256",
					"name": "latte_amount",
					"type": "uint256"
				},
				{
					"internalType": "uint256",
					"name": "bubble_tea_amount",
					"type": "uint256"
				}
			],
			"name": "Buy_Drink",
			"outputs": [],
			"stateMutability": "payable",
			"type": "function"
		},
		{
			"inputs": [
				{
					"internalType": "address",
					"name": "store",
					"type": "address"
				},
				{
					"internalType": "uint256",
					"name": "coffee_amount",
					"type": "uint256"
				},
				{
					"internalType": "uint256",
					"name": "latte_amount",
					"type": "uint256"
				},
				{
					"internalType": "uint256",
					"name": "bubble_tea_amount",
					"type": "uint256"
				}
			],
			"name": "addStore",
			"outputs": [],
			"stateMutability": "payable",
			"type": "function"
		},
		{
			"inputs": [
				{
					"internalType": "uint256",
					"name": "coffee_amount",
					"type": "uint256"
				},
				{
					"internalType": "uint256",
					"name": "latte_amount",
					"type": "uint256"
				},
				{
					"internalType": "uint256",
					"name": "bubble_tea_amount",
					"type": "uint256"
				}
			],
			"name": "add_inventory",
			"outputs": [],
			"stateMutability": "nonpayable",
			"type": "function"
		},
		{
			"inputs": [
				{
					"internalType": "address",
					"name": "",
					"type": "address"
				}
			],
			"name": "buyers",
			"outputs": [
				{
					"internalType": "uint256",
					"name": "coffee",
					"type": "uint256"
				},
				{
					"internalType": "uint256",
					"name": "latte",
					"type": "uint256"
				},
				{
					"internalType": "uint256",
					"name": "bubble_tea",
					"type": "uint256"
				}
			],
			"stateMutability": "view",
			"type": "function"
		},
		{
			"inputs": [],
			"name": "contract_owner",
			"outputs": [
				{
					"internalType": "address",
					"name": "",
					"type": "address"
				}
			],
			"stateMutability": "view",
			"type": "function"
		},
		{
			"inputs": [
				{
					"internalType": "address",
					"name": "",
					"type": "address"
				}
			],
			"name": "stores",
			"outputs": [
				{
					"internalType": "uint256",
					"name": "eth_balance",
					"type": "uint256"
				},
				{
					"internalType": "uint256",
					"name": "coffee",
					"type": "uint256"
				},
				{
					"internalType": "uint256",
					"name": "latte",
					"type": "uint256"
				},
				{
					"internalType": "uint256",
					"name": "bubble_tea",
					"type": "uint256"
				},
				{
					"internalType": "bool",
					"name": "exist",
					"type": "bool"
				}
			],
			"stateMutability": "view",
			"type": "function"
		},
		{
			"inputs": [
				{
					"internalType": "uint256",
					"name": "finney_amount",
					"type": "uint256"
				}
			],
			"name": "withdraw",
			"outputs": [],
			"stateMutability": "nonpayable",
			"type": "function"
		}
	]
}